{
  "_format": "hh-sol-artifact-1",
  "contractName": "TaskContract",
  "sourceName": "contracts/TaskContract.sol",
  "abi": [
    {
      "inputs": [],
      "stateMutability": "nonpayable",
      "type": "constructor"
    },
    {
      "inputs": [
        {
          "internalType": "uint256",
          "name": "idTask",
          "type": "uint256"
        }
      ],
      "name": "completedTask",
      "outputs": [],
      "stateMutability": "nonpayable",
      "type": "function"
    },
    {
      "inputs": [
        {
          "internalType": "string",
          "name": "_taskName",
          "type": "string"
        }
      ],
      "name": "createTask",
      "outputs": [],
      "stateMutability": "nonpayable",
      "type": "function"
    },
    {
      "inputs": [],
      "name": "getCountTask",
      "outputs": [
        {
          "internalType": "uint256",
          "name": "",
          "type": "uint256"
        }
      ],
      "stateMutability": "view",
      "type": "function"
    },
    {
      "inputs": [
        {
          "internalType": "uint256",
          "name": "",
          "type": "uint256"
        }
      ],
      "name": "tasks",
      "outputs": [
        {
          "internalType": "uint256",
          "name": "id",
          "type": "uint256"
        },
        {
          "internalType": "string",
          "name": "taskTitle",
          "type": "string"
        },
        {
          "internalType": "bool",
          "name": "isCompleted",
          "type": "bool"
        }
      ],
      "stateMutability": "view",
      "type": "function"
    }
  ],
  "bytecode": "0x6080604052600080553480156200001557600080fd5b506200005c6040518060400160405280601081526020017f48656c6c6f20576f726c64207461736b00000000000000000000000000000000815250620000a860201b60201c565b620000a26040518060400160405280601281526020017f48656c6c6f20576f726c64207461736b20320000000000000000000000000000815250620000a860201b60201c565b6200051a565b60405180606001604052806000548152602001828152602001600015158152506001600080548152602001908152602001600020600082015181600001556020820151816001019081620000fd9190620003b7565b5060408201518160020160006101000a81548160ff0219169083151502179055509050506000808154809291906200013590620004cd565b919050555050565b600081519050919050565b7f4e487b7100000000000000000000000000000000000000000000000000000000600052604160045260246000fd5b7f4e487b7100000000000000000000000000000000000000000000000000000000600052602260045260246000fd5b60006002820490506001821680620001bf57607f821691505b602082108103620001d557620001d462000177565b5b50919050565b60008190508160005260206000209050919050565b60006020601f8301049050919050565b600082821b905092915050565b6000600883026200023f7fffffffffffffffffffffffffffffffffffffffffffffffffffffffffffffffff8262000200565b6200024b868362000200565b95508019841693508086168417925050509392505050565b6000819050919050565b6000819050919050565b600062000298620002926200028c8462000263565b6200026d565b62000263565b9050919050565b6000819050919050565b620002b48362000277565b620002cc620002c3826200029f565b8484546200020d565b825550505050565b600090565b620002e3620002d4565b620002f0818484620002a9565b505050565b5b8181101562000318576200030c600082620002d9565b600181019050620002f6565b5050565b601f82111562000367576200033181620001db565b6200033c84620001f0565b810160208510156200034c578190505b620003646200035b85620001f0565b830182620002f5565b50505b505050565b600082821c905092915050565b60006200038c600019846008026200036c565b1980831691505092915050565b6000620003a7838362000379565b9150826002028217905092915050565b620003c2826200013d565b67ffffffffffffffff811115620003de57620003dd62000148565b5b620003ea8254620001a6565b620003f78282856200031c565b600060209050601f8311600181146200042f57600084156200041a578287015190505b62000426858262000399565b86555062000496565b601f1984166200043f86620001db565b60005b82811015620004695784890151825560018201915060208501945060208101905062000442565b8683101562000489578489015162000485601f89168262000379565b8355505b6001600288020188555050505b505050505050565b7f4e487b7100000000000000000000000000000000000000000000000000000000600052601160045260246000fd5b6000620004da8262000263565b91507fffffffffffffffffffffffffffffffffffffffffffffffffffffffffffffffff82036200050f576200050e6200049e565b5b600182019050919050565b6108f6806200052a6000396000f3fe608060405234801561001057600080fd5b506004361061004c5760003560e01c8063111002aa146100515780638d9776721461006d578063c381c8d01461009f578063ed454764146100bd575b600080fd5b61006b600480360381019061006691906103bd565b6100d9565b005b6100876004803603810190610082919061043c565b61016a565b60405161009693929190610512565b60405180910390f35b6100a7610229565b6040516100b49190610550565b60405180910390f35b6100d760048036038101906100d2919061043c565b610232565b005b6040518060600160405280600054815260200182815260200160001515815250600160008054815260200190815260200160002060008201518160000155602082015181600101908161012c9190610777565b5060408201518160020160006101000a81548160ff02191690831515021790555090505060008081548092919061016290610878565b919050555050565b60016020528060005260406000206000915090508060000154908060010180546101939061059a565b80601f01602080910402602001604051908101604052809291908181526020018280546101bf9061059a565b801561020c5780601f106101e15761010080835404028352916020019161020c565b820191906000526020600020905b8154815290600101906020018083116101ef57829003601f168201915b5050505050908060020160009054906101000a900460ff16905083565b60008054905090565b600180600083815260200190815260200160002060020160006101000a81548160ff02191690831515021790555050565b6000604051905090565b600080fd5b600080fd5b600080fd5b600080fd5b6000601f19601f8301169050919050565b7f4e487b7100000000000000000000000000000000000000000000000000000000600052604160045260246000fd5b6102ca82610281565b810181811067ffffffffffffffff821117156102e9576102e8610292565b5b80604052505050565b60006102fc610263565b905061030882826102c1565b919050565b600067ffffffffffffffff82111561032857610327610292565b5b61033182610281565b9050602081019050919050565b82818337600083830152505050565b600061036061035b8461030d565b6102f2565b90508281526020810184848401111561037c5761037b61027c565b5b61038784828561033e565b509392505050565b600082601f8301126103a4576103a3610277565b5b81356103b484826020860161034d565b91505092915050565b6000602082840312156103d3576103d261026d565b5b600082013567ffffffffffffffff8111156103f1576103f0610272565b5b6103fd8482850161038f565b91505092915050565b6000819050919050565b61041981610406565b811461042457600080fd5b50565b60008135905061043681610410565b92915050565b6000602082840312156104525761045161026d565b5b600061046084828501610427565b91505092915050565b61047281610406565b82525050565b600081519050919050565b600082825260208201905092915050565b60005b838110156104b2578082015181840152602081019050610497565b60008484015250505050565b60006104c982610478565b6104d38185610483565b93506104e3818560208601610494565b6104ec81610281565b840191505092915050565b60008115159050919050565b61050c816104f7565b82525050565b60006060820190506105276000830186610469565b818103602083015261053981856104be565b90506105486040830184610503565b949350505050565b60006020820190506105656000830184610469565b92915050565b7f4e487b7100000000000000000000000000000000000000000000000000000000600052602260045260246000fd5b600060028204905060018216806105b257607f821691505b6020821081036105c5576105c461056b565b5b50919050565b60008190508160005260206000209050919050565b60006020601f8301049050919050565b600082821b905092915050565b60006008830261062d7fffffffffffffffffffffffffffffffffffffffffffffffffffffffffffffffff826105f0565b61063786836105f0565b95508019841693508086168417925050509392505050565b6000819050919050565b600061067461066f61066a84610406565b61064f565b610406565b9050919050565b6000819050919050565b61068e83610659565b6106a261069a8261067b565b8484546105fd565b825550505050565b600090565b6106b76106aa565b6106c2818484610685565b505050565b5b818110156106e6576106db6000826106af565b6001810190506106c8565b5050565b601f82111561072b576106fc816105cb565b610705846105e0565b81016020851015610714578190505b610728610720856105e0565b8301826106c7565b50505b505050565b600082821c905092915050565b600061074e60001984600802610730565b1980831691505092915050565b6000610767838361073d565b9150826002028217905092915050565b61078082610478565b67ffffffffffffffff81111561079957610798610292565b5b6107a3825461059a565b6107ae8282856106ea565b600060209050601f8311600181146107e157600084156107cf578287015190505b6107d9858261075b565b865550610841565b601f1984166107ef866105cb565b60005b82811015610817578489015182556001820191506020850194506020810190506107f2565b868310156108345784890151610830601f89168261073d565b8355505b6001600288020188555050505b505050505050565b7f4e487b7100000000000000000000000000000000000000000000000000000000600052601160045260246000fd5b600061088382610406565b91507fffffffffffffffffffffffffffffffffffffffffffffffffffffffffffffffff82036108b5576108b4610849565b5b60018201905091905056fea2646970667358221220ff35e0d345efe938b157e260eefc349186b14c4fe4038d341b53a2bc30cb36e564736f6c63430008120033",
  "linkReferences": {},
  "deployedLinkReferences": {}
}